:020000040800F2
:1000000000920120D10100081D22010839D000080A
:10001000991401083D16000869E901080000000074
:10002000000000000000000000000000A18701089F
:10003000E32C000800000000690B0008E5880108B7
:100040000B0200080B0200080B020008B56C010847
:100050000B0200080B0200080B0200080B0200084C
:100060000B0200080B0200080B0200080B0200083C
:100070000B0200080B0200080B0200080B0200082C
:100080000B0200080B0200080B0200080B0200081C
:100090000B0200080B0200080B0200080B0200080C
:1000A0000B0200080B0200080B0200080B020008FC
:1000B00069D701080B0200080B0200080B020008B8
:1000C0000B0200080B0200080B0200080B020008DC
:1000D0000B020008A9E8010829E9010841E9010823
:1000E0001B330008C96A01080B0200080B02000854
:1000F0000B0200080B0200080B0200080B020008AC
:100100000B0200080B0200080B0200080B0200089B
:100110000B0200080B0200080B0200080B0200088B
:100120000B0200080B0200080B0200080B0200087B
:100130000B0200080B0200080B0200080B0200086B
:100140000B0200080B0200080B0200080B0200085B
:100150000B0200080B0200080B0200080B0200084B
:100160000B0200080B0200080B0200080B0200083B
:100170000B0200080B0200080B0200080000000040
:100180000B0200080B0200080B0200080B0200081B
:100190000B0200080B0200080B0200080B0200080B
:1001A0000B0200080B0200080B020008DFF80CD05D
:1001B00000F03AFC004800472D5603080092012049
:1001C00030BF72B6704762B6704780F308887047D8
:1001D0000E488047DFF83800016841F47001016083
:1001E000BFF34F8FDFF82C00016821F04041016020
:1001F000BFF36F8F08480047FEE7FEE7FEE7FEE724
:10020000FEE7FEE7FEE7FEE7FEE7FEE709890108F5
:1002100088ED00E034EF00E0AD01000872B67047F1
:1002200062B67047EFF3108072B6704780F31088A3
:10023000704730BF704720BF7047B0FA80F07047FA
:1002400090FAA0F0B0FA80F0704790FAA0F07047F2
:100250002DE9F05F0546002092469B4688460646FB
:10026000814640241BE0284641464746224600F08E
:100270004CFA53465A46C01A914110D311461846BB
:10028000224600F033FA2D1A67EB01084F4622464A
:100290000120002100F02AFA17EB00094E41201E30
:1002A000A4F10104DFDC484631462A464346BDE856
:1002B000F09F10B5431A934209D28318881803E0BF
:1002C00010F8011D03F8011D521EF9D210BD40EABD
:1002D00001039B0703D009E008C9121F08C0042AC4
:1002E000FAD203E011F8013B00F8013B521EF9D2AB
:1002F00010BDD2B201E000F8012B491EFBD27047BD
:100300000022F6E710B513460A4604461946FFF7E1
:10031000F0FF204610BD421E12F8013F002BFBD11A
:1003200011F8013B02F8013B002BF9D17047421C48
:1003300010F8011B0029FBD1801A704710B500226C
:1003400000E0521C835C8C5CA34201D1002BF8D1ED
:10035000D8B2E1B2401A10BD30B5044600200346C1
:1003600000E05B1C934203D2E05CCD5C401BF8D004
:1003700030BD034611F8012B00F8012B002AF9D1FA
:10038000184670472DE9FE4F804681EA0300C00FF2
:100390000C46009021F0004123F00045B8EB02002C
:1003A000A94105D24046214690461C460B460246CE
:1003B00023F00040104347D0270DC7F30A00C3F3D2
:1003C0000A510290401A019040286BDAC3F31300DF
:1003D00040F4801B0098924620B10023D2EB030A20
:1003E00063EB0B0B01985946C0F14002504600F0F8
:1003F0007DF906460D4650465946019A00F095F99A
:1004000010EB08006141002487EA115284EAE77387
:100410001A4340D0009A62B3019A012A4FEA075268
:1004200015DC001B61EB02014FF0004202EA0752AB
:10043000CDE90042001C41F5801132462B4600F008
:10044000CCF903B0BDE8F08F40462146F9E7001B28
:1004500061EB0201001C41F5801300185B4120187C
:10046000A2F5001747EB030140EAD570B6196D41BC
:1004700011E06D084FEA360645EAC0754FEA0752AB
:10048000001B61EB0201001C41F5801149084FEA95
:1004900030000019514132462B4603B0BDE8F04F01
:1004A00000F08CB90098012240000023D0EB02023A
:1004B00063EBE073009821464FEAE074B8EB00006C
:1004C00061EB0401E9E783F000435BE781F0004161
:1004D00058E72DE9FE4F81EA030404F0004421F0BF
:1004E000004100944FF0000B23F0004350EA010458
:1004F0005ED052EA03045BD0C3F30A54C1F30A5539
:100500002C44A4F2F3340194A0FB0254C1F3130170
:1005100041F48011C3F3130343F4801301FB02443D
:1005200000FB034E840A970A44EA815447EA835742
:10053000A4FB076802958D0A05FB07854FEA932CFB
:1005400004FB0C542705029D4FEA065847EA16376C
:10055000B5EB08056EEB070C870E920E47EA811784
:1005600042EA8312A7FB0201B6EB0B0164EB000425
:100570002B0D43EA0C335E1844EB1C50DA4651460F
:10058000E7FB0201C5F313044FEA0B3343EA1453AC
:100590004FEA0432019C43EA0603A4F10C040294DE
:1005A000009CCDE900B400F018F903B0BDE8F08F6D
:1005B00000200146F9E70EB540F2334102910021D7
:1005C000CDE900110A460B4600F007F903B000BD63
:1005D000C1F30A5210B5C1F3130140F2FF3341F4E5
:1005E00080119A4201DA002010BD40F233439A4252
:1005F000A2F2334203DC524200F087F810BD904073
:1006000010BD00F0004230F000400AD0C10D01F5ED
:100610006071C0F3160042EA0151C208400711435D
:10062000704700200146704730B5041E71F1000488
:1006300004DB4FF00044404264EB0101141E73F1EF
:10064000000405DB1C464FF00043524263EB0403F9
:100650008B4208BF824230BD30B5041E71F10004E8
:1006600004DB4FF00044404264EB0101141E73F1BF
:10067000000405DB1C464FF00043524263EB0403C9
:10068000994208BF904230BD01F0004330B421F0E0
:10069000004150EA010206D00A0DA2F56072C1F3D2
:1006A0001301002A02DC30BC00207047440F44EAEA
:1006B000C104C100E01830BC00EBC25000F047B8E4
:1006C00030B50B46014600202022012409E021FA22
:1006D00002F59D4205D303FA02F5491B04FA02F51F
:1006E0002844151EA2F10102F1DC30BD202A04DBF2
:1006F000203A00FA02F1002070479140C2F1200335
:1007000020FA03F3194390407047202A04DB203A73
:1007100021FA02F00021704721FA02F3D040C2F121
:1007200020029140084319467047202A06DBCB1768
:10073000203A41FA02F043EAE07306E041FA02F39C
:10074000D040C2F120029140084319467047002969
:10075000A8BF7047401C490008BF20F00100704747
:1007600010B4B0FA80FC00FA0CF050EA010404BFA7
:1007700010BC704749B1CCF1200421FA04F411FAFD
:100780000CF118BF012121430843A3EB0C01CB1D41
:100790004FEA00614FEA102042BF002010BC7047B2
:1007A00000EBC35010440029A4BF10BC7047401C8C
:1007B000490008BF20F0010010BC704710B5141E9E
:1007C00073F1000408DA401C41F1000192185B410A
:1007D0001A4301D120F0010010BD2DE9F04D9246E1
:1007E0009B4611B1B1FA81F202E0B0FA80F22032F8
:1007F0009046FFF77BFF04460F4640EA0A0041EAB5
:100800000B0153465A46084313D0114653EA0100E0
:1008100019D0C8F140025046FFF777FF05460E4653
:10082000504659464246FFF761FF084305D0012074
:1008300004E020463946BDE8F08D0020054346EA35
:10084000E0762C4337430A986305E40AA0EB0800DE
:100850000022FD0A44EA47540A3002D5002001462E
:10086000E9E7010510196941DDE908450019694109
:10087000BDE8F04DA2E72DE9F04D81EA030404F054
:10088000004B21F0004514464FF0000A23F00041D0
:1008900050EA050220D054EA01021DD0C5F30A57E0
:1008A0000246C5F31303C1F31300C1F30A5640F423
:1008B000801543F48013A7EB0608101BD64608F2F8
:1008C000FD3873EB050002D308F1010801E092182E
:1008D0005B41B8F1000F03DA00200146BDE8F08D5E
:1008E00000204FF48011064684460EE0171B73EB80
:1008F000050705D3121B63EB050306434CEA010C05
:1009000049084FEA300092185B4150EA0107EDD1E7
:1009100052EA030012D082EA040083EA0501084388
:1009200005D0101BAB4106D20122002306E00022B5
:100930004FF0004302E06FF0010253101AEB060083
:100940004CEB085110EB0A0041EB0B01BDE8F04DF8
:10095000FFF734BF2DE9F04D00231A461B1A8A41D8
:1009600003DB00200146BDE8F08DC1F30A52C1F35C
:10097000130141F480154FF0000BD10702D100188C
:100980006D41521E0027044640F2FF11384601EB2C
:10099000620A3E468046024600204FF48011FFF76F
:1009A000B4FEC2197141BB1846EB0100B4EB030C55
:1009B00075EB000C04D3E41A65EB000517460E46F0
:1009C000241908F101006D4180463428E3DDF9194E
:1009D00046EB0600091BA84103D24FF0FF32134635
:1009E00001E0002213461BEB070046EB0A51BDE86D
:1009F000F04DFFF7E3BEC1F30A52C1F3130140F219
:100A0000FF3341F480119A4202DA00200146704718
:100A100040F233439A42A2F2334202DC5242FFF7E1
:100A200074BEFFF763BE0000064C074D06E0E068A9
:100A300040F0010394E8070098471034AC42F6D325
:100A4000FFF7B8FB54F80E0874F80E0870B58D184F
:100A500010F8014B14F0030201D110F8012B2311FF
:100A600006D110F8013B03E010F8016B01F8016BAF
:100A7000521EF9D1ABB110F8012B04F00C048A1A04
:100A80000C2C03D0A2EB84129B1C08E010F8014B45
:100A9000A2EB0422F8E712F8014B01F8014B5B1EB0
:100AA000F9D5A942D4D3002070BD0000EFF309812D
:100AB00041B1F1EE101A40F8041D20ED200A3E4924
:100AC0000A6810607047B0EC200A02C8E1EE101A04
:100AD0003A490A681060704772B64EF62250CEF25C
:100AE000000040F2FF01C0F2000101704FF0000071
:100AF00080F3098813F062FA40F2AC10C2F20000F1
:100B0000016881F3088840F22A10C2F2000040F226
:100B10002B11C2F200010A78027040F2A415C2F251
:100B2000000540F2A811C2F200010A682A601068AC
:100B300080F30988EFF3148040F0020080F31488FA
:100B4000BFF36F8FBDE8F00F0FBCBDE8005006BCCF
:100B500062B608471A484FF0805101607047184844
:100B60004FF080510160704772B6EFF3098020E9C1
:100B7000F00F40F2A415C2F200052E6830607446F2
:100B800013F01CFA40F22A10C2F2000040F22B11BE
:100B9000C2F200010A78027040F2A811C2F200010C
:100BA0000A682A6044F0F40E1068B0E8F00F80F391
:100BB000098862B670470000A4010020A801002047
:100BC00004ED00E070B50CF085FC002504240CF069
:100BD00033FD3C200CF000FD0CF070FD48B92846B8
:100BE0000CF0FAFC0CF06AFD20460CF0F5FC0CF061
:100BF00065FD0CF041FD322030F04AFA0025032457
:100C00000CF01AFD3C200CF0E7FC0CF057FD48B945
:100C100028460CF0E1FC0CF051FD20460CF0DCFC09
:100C20000CF04CFD0CF028FD00240CF005FD3C20E0
:100C30000CF0D2FC0CF042FD20460CF0CDFC0CF088
:100C40003DFD0CF0F9FC3D200CF0C6FC0CF036FD2F
:100C500000200CF063FC04460CF00EFD032C0CBFCE
:100C60000020012070BD2DE9F04383B090460D4671
:100C700006460024E94604F10A00C7B20CF0DCFC89
:100C80003C200CF0A9FC0CF019FD38460CF0A4FC3B
:100C90000CF014FD0CF0D0FC3D200CF09DFC0CF091
:100CA0000DFD00200CF03AFC07460CF0E5FC09F8BD
:100CB0000470601CC4B2062CDDD39DF800104FF008
:100CC000000011F0800F18BF308004D19DF8012082
:100CD00062F39F013180BDF80210A8F800109DF862
:100CE000041011F0400F1EBF288003B0BDE8F08350
:100CF0009DF8050000F03F0060F31F11298003B04C
:100D0000BDE8F0830CF0E6BB2DE9F0470D0001468D
:100D10004FF0000004461ABF4F194FF0A008BDE87D
:100D2000F08700BF4FEA0029381B461E0CF084FCF8
:100D3000300A08EB4000C0B20CF04EFC0CF0BEFCD8
:100D4000F0B20CF049FC0CF0B9FC0CF075FCA120E1
:100D50000CF042FC0CF0B2FC00200CF0DFFB06466D
:100D60000CF08AFC611CCCB206EB0900A542D9D874
:100D7000BDE8F08710B504460CF05EFC200AA02107
:100D800001EB4000C0B20CF027FC0CF097FCE0B285
:100D90000CF022FC0CF092FC0CF04EFCA1200CF0AC
:100DA0001BFC0CF08BFC00200CF0B8FB04460CF094
:100DB00063FC204610BD2DE9F04716000F46804623
:100DC0004FF0000414BF4FF0A00ABDE8F08708EB15
:100DD0000405E00027FA00F000F0FF090CF02CFCFD
:100DE000280A0AEB4000C0B20CF0F6FB0CF066FCDF
:100DF000E8B20CF0F1FB0CF061FC48460CF0ECFBA7
:100E00000CF05CFC0CF038FC0A2030F041F9601C5E
:100E1000C4B2A642DBD8BDE8F08770B50D460446E3
:100E20000CF00AFC200AA02101EB4000C0B20CF03B
:100E3000D3FB0CF043FCE0B20CF0CEFB0CF03EFC1C
:100E400028460CF0C9FB0CF039FC0CF015FCBDE891
:100E500070400A2030F01CB9002800DC4042704786
:100E600000B583B00021009103460191044A052199
:100E7000044804F02BFD0449086003B000BD0000E5
:100E80005102030820CC0C083C02002000B583B0BE
:100E90000021009103460191034A0521034804F013
:100EA00015FD03B000BD000089E7020800D40C085E
:100EB00000B583B00021009103460191034A04214B
:100EC000034804F003FD03B000BD000071DC02081C
:100ED00080D00C0800B583B0002100910346019139
:100EE000034A0E21034804F0F1FC03B000BD0000EA
:100EF00039D30208A8CD0C0800B583B000210091B9
:100F000003460191034A0321034804F0DFFC03B0C8
:100F100000BD0000D5E60208ACD30C0800B583B0D4
:100F20000021009103460191044A0B21044804F07A
:100F3000CDFC0449486003B000BD000069ED020823
:100F4000CCD50C083403002000B583B000210091FB
:100F500003460191034A0521034804F0B7FC03B09E
:100F600000BD000035E902088CD40C0800B583B040
:100F70000021009103460191034A0721034804F030
:100F8000A5FC03B000BD00006DF5020888D80C0870
:100F900000B583B00021009103460191034A082166
:100FA000034804F093FC03B000BD000069F102089F
:100FB000A8D70C0800B583B0002100910346019129
:100FC000034A0B21034804F081FC03B000BD00007C
:100FD00035F702084CD90C0800B583B00021009108
:100FE00003460191034A0B21034804F06FFC03B050
:100FF00000BD000011DE0208F0D00C0800B583B07F
:101000000021009103460191034A0921034804F09D
:101010005DFC03B000BD000069D50208ACCC0C0833
:1010200000B583B00021009103460191034A0321DA
:10103000034804F04BFC03B000BD0000F1E50208DA
:1010400058D30C0800B583B00021009103460191EC
:10105000034A0621034804F039FC03B000BD000038
:10106000E1EA020824D50C0800B583B00021009104
:1010700003460191034A0B21034804F027FC03B007
:1010800000BD0000F5E1020824D20C0800B583B0D1
:101090000021009103460191034A0721034804F00F
:1010A00015FC03B000BD0000A5D7020830CF0C0826
:1010B00000B583B00021009103460191034A052148
:1010C000034804F003FC03B000BD0000D5DA0208B9
:1010D000F4CF0C0800B583B00021009103460191C4
:1010E000034A0621034804F0F1FB03B000BD0000F1
:1010F00095EF020800D70C0838B54568044601464C
:1011000028461DF074FE00282BD02068304A112894
:101110000DD006DC0B2825D00E2833D00F2852D155
:1011200012E0282849D0B0F5107F4CD108E0926831
:10113000002A16D02146284601B0BDE830401047AD
:10114000214628465268F7E7284604F075F90090D2
:10115000406E0468684604F0D9F9002C01D0284696
:10116000A04738BD284604F067F90090683004F0C5
:10117000B9F8009803216C3004F0C2F8684604F016
:10118000C5F920E0E168486809680D2902D02029E6
:1011900013D105E0002810DD284628F08FFE06E078
:1011A000002804DD2846BDE8384028F087BE2846E0
:1011B000BDE83840022128F097BEE06818B9002148
:1011C000284600F0CEF92046BDE838401EF09CBA13
:1011D00080040020F0B5044685B08069B4F9085059
:1011E000668A0027CDE90265CDE900170490B4F9BD
:1011F0000C00B4F91060C118B4F90A00B4F90E502B
:10120000104433462A4600F007F80546616800F0AE
:10121000C9F905B02846F0BD2DE9F04F85B01F464D
:10122000DDE911B4DDE90E5690468946824605F0A7
:10123000D3FC16484C34CDE90204CDE900563B46B8
:101240004246494650461EF0A7F9040018D004F063
:10125000F3F81022594604901DF0BCFF0498302288
:101260000B493430FFF725F8094D04990C3D2868E7
:10127000486604A804F04AF928684168204688476F
:1012800007F030F805B02046BDE8F08FF9100008EF
:101290008C040020F0B5044680688B4989B051F871
:1012A0002050606800287DD0052804D006287AD018
:1012B000122879D1AEE0E86900284FD095E80E00F9
:1012C0008DE80F0004F110010FC907F097FC00260C
:1012D00055F8260006F035FBA169E8690A1A21696C
:1012E00001446069304404F0D1FEA169E8690A1A3A
:1012F00021690144E069801B04F0C8FEE169E869E6
:101300000A1A616901442069304404F09FFFE169D1
:10131000E8690A1A61690144A069801B04F096FF1C
:10132000761C022ED4DBA86806F00BFBE069E969A5
:101330006669431A206942183144801C521E04F029
:10134000E1FFE169E869A2690B1A61690144101AB9
:10135000401C921E04F0D6FFEE6913E05FF0000619
:1013600055F8260006F0EDFAE069831BA069821BA0
:10137000606981192069304404F0FEFE761C022E5B
:10138000EEDB0226D5E90301CDE900016169E069E0
:1013900008444310A069891C821B2069304404F072
:1013A00039FE02E089E012E08AE0D5E90501CDE9E5
:1013B0000001E36960690121184401EB6001A06943
:1013C0009B1E821B2069304404F024FE78E02068D4
:1013D00004F032F8049020681FF0CCFD40B1A06802
:1013E00008B1002008E00498006F28B1012003E054
:1013F0000498406F00B10220049901EB8000C56E93
:1014000004A804F083F800231A462846216804F053
:10141000A7FB55E0206804F00FF80490866EEEB349
:10142000B0F95C70A168D1B3032942D05FF000012C
:1014300000EB8101406D0C6C06F0B2FA204606F01C
:1014400080FA05A805F020F8BDF81410A88B014417
:10145000ADF81410BDF81810081AADF81800BDF852
:101460001600801CADF81600BDF81A00801EADF8FD
:101470001A000498B0F96020B0F95E1005A806F0D3
:101480001BF904A804F042F8022006F0F5FA3046F1
:1014900003F0D2FF3A4605A9079001E00BE006E011
:1014A00004F040FC0DF11C0004F030F808E00121CC
:1014B000BEE70221BCE704A8F6E720681FF04EF95A
:1014C00009B00020F0BD00001CEA0E0838B503F09A
:1014D000B3FF04460090684604F018F8204638BD73
:1014E00038B505004FF000040DD005F075FB284617
:1014F00003F0A2FF0090408EC0F30024684604F081
:1015000005F806F0EFFE204638BD70B516460C46CD
:10151000054619463046049A04F002FB024621466D
:101520002846BDE8704000F06AB800294FF010016D
:1015300001D01DF0F0BC1DF039BC38B50D460400DB
:101540000ED005F049FB204603F076FF009045657C
:10155000684603F0DBFF20461EF036FE06F0C2FEB2
:1015600038BD4FF480720029114601D01DF0D3BC64
:101570001DF01CBC38B50C46054605F02DFB284671
:1015800003F05AFF0090064984654166684603F0FF
:10159000BDFF28461EF018FE06F0A4FE38BD000070
:1015A000C40700202DE9FF410E4605004FF001045D
:1015B00021D005F011FB284603F03EFF0190876E15
:1015C00001A8009703F0A2FF3146684607F086FEA7
:1015D00078B100980024B84208D0284603F02CFFC8
:1015E00001900099816601A803F090FF28461EF043
:1015F000EBFD06F077FE04B02046BDE8F081F8B5BB
:1016000015460C46060018D005F0E6FA304603F001
:1016100013FF0090032C0BD200EB84006C3003F01E
:1016200061FE009800EB8400C56630461EF0CCFDDC
:10163000684603F06BFF06F055FEF8BDFEE730B5D7
:101640004568044601469BB028461DF0D0FB0028A3
:101650000CD020680E280BD00F2813D0262815D0C8
:10166000B0F5107F09D020461EF04EF81BB030BDFB
:101670002146284628F020FDF8E72146284629F093
:101680004FF9F3E7284628F02CFEEFE7A0681EF09C
:10169000DCF94FF4B873E168984203D0A0F580728A
:1016A000713AE3D10229E1D1984201D1CC1E00E088
:1016B00001246C22694628461DF092FE0498001908
:1016C000049002D00D2805D009E00398401E039035
:1016D0000C2003E00398401C0390012004904FF479
:1016E000B07128461EF062F9049A6FF0030318994E
:1016F00003EB82028958039A2AF0D2FD6C226946D4
:1017000028461DF083FE28461EF05EFD0A2128466D
:101710001EF0FCFDAAE700002DE9FF4FB9B00F460F
:10172000DDE9465BDDE949981C461646702102A8B2
:10173000DDF820A1FEF7E4FD6C211EA8FEF7E0FD18
:10174000681E0C287ED2A4F22E6042F2E20188428A
:10175000F8D244225F4927A8FEF7ABFD1F22BBFB4E
:10176000F2F102FB11B020A9CDE91E4581E831005C
:1017700001202390CDF8E0A0209A574824940290AD
:10178000CDE925523398359AC0EBC00134984FF417
:10179000B874C0EBC0001044ADF818006C2008907D
:1017A000ADF81A80ADF82C400320ADF82E00359826
:1017B0004A4B0A38ADF81270ADF81090ADF81460CD
:1017C0000993ADF83400651C1093ADF81610ADF810
:1017D0004850359B0522C91AC91DADF84A10404B27
:1017E0001793C31CADF83020ADF85000ADF83200AF
:1017F000ADF84C204FF4B076ADF86820C91AADF8BA
:101800006C00ADF84E00ADF86460ADF86630ADF830
:101810006A10002000900190324A042102A8399BEE
:1018200004F054F8070053D06FF070411DF0DBFD59
:101830002D4938461EF09BFE214638461EF0B6F86C
:10184000044600E044E00021FFF76FFE27492046F0
:10185000FFF790FE294638461EF0A8F804460021FE
:10186000FFF763FE21492046FFF784FE31463846E4
:101870001EF09CF804461E491EF079FE0E212046FB
:1018800017F071F920462E9917F082F92046329907
:1018900017F028F920461DF023FE20462D9917F059
:1018A00001F922996FF00302369802EB8101219A27
:1018B000415820462AF0F4FC38461EF0C9FE6C223E
:1018C0001EA938461DF0A2FD38463DB0BDE8F08F98
:1018D0000020FAE74805002037F30108D511000879
:1018E000C78901083F160008090403082567020894
:1018F000BBC4020830B59BB00C46054605F06CF938
:101900006C22694628461DF06BFD06AB93E8070084
:1019100084E8070006F0E6FC1BB030BD044A03284B
:1019200002D242F820107047FDD19161704700004B
:101930004805002001490864704700004805002060
:10194000022803D2024A02EB800081627047000045
:10195000480500200149C863704700004805002081
:10196000054A28B1012805D0022800D151637047EB
:10197000916370471163704748050020F8B54468CB
:101980000546014620461DF032FA002836D0286868
:101990000B2839D00E2805D00F2821D0B0F5107FA4
:1019A0003CD12CE0204603F047FD009010F8746F06
:1019B0004778684603F0AAFD20461FF0DBFA10B313
:1019C000E8684168002929DD0068202826D17F1CAD
:1019D000B7FBF6F006FB1071204600F046F91DE05B
:1019E0002546204603F028FD0090006F04686846F5
:1019F00003F08CFD002C01D02846A047F8BD2946F5
:101A0000204629F077F809E0204603F015FD009004
:101A1000783003F067FC684603F078FD2846BDE89F
:101A2000F8401DF071BEF0B585B0B0F90850468A97
:101A300084690296CDE903540027CDE90017B0F977
:101A40000C10B0F91050B0F90E40B0F90A0019446A
:101A500010442B46224600F003F805B0F0BD00000C
:101A60002DE9F04F85B01D46DDE90E9716468A46F2
:101A70008346DDF8488005F0AFF8254C0EB135B14E
:101A80000AE020688068006880470646F7E720681B
:101A900080680068804705461D486FF07041001D52
:101AA000C068884201D147F0010708F15400194A83
:101AB000CDE90220CDE900972B46324651465846E3
:101AC0001DF06AFD05001CD003F0B6FC1022049046
:101AD00011991DF07FFB0E4904983C22091D3430FA
:101AE000FEF7E7FB049821680167022180F8741073
:101AF0000F21C16704A803F009FD2068416828464A
:101B0000884706F0EFFB05B02846BDE8F08F0000DF
:101B1000500800207D1900082DE9FF4704460068A1
:101B200010B11FF027FA68B10022314850F8221096
:101B300060680A2841D007DCF0B306280DD00728DA
:101B400054D106E00122F0E712280AD019284DD11D
:101B500037E0204622F0D8F848E0204623F0D4FFB2
:101B600044E0206803F068FC0290B0F9548090F8DB
:101B70005650476C466B02A803F0C8FC206800F082
:101B800039F8814668461DF0CDFEBDF8001009EB1E
:101B900005000844ADF80000246A304605F000FF57
:101BA000022005F069FF384605F0CBFE4246694643
:101BB000204604F0B7F819E007E0204624F0BFF90A
:101BC00014E0886904B0BDE8F08720681EF0C6FD07
:101BD000206803F031FC0390B0F90610B0F9022040
:101BE000891A491CC16703A803F090FC0020E9E7AB
:101BF00060EB0E0838B5044604F0EEFF204603F013
:101C00001BFC0090C46F684603F080FC06F06AFB82
:101C1000204638BD38B505004FF000040CD004F064
:101C2000DBFF284603F008FC009090F875406846FA
:101C300003F06CFC06F056FB204638BD38B50C4668
:101C4000050011D004F0C8FF284603F0F5FB009012
:101C5000416BA14203D0446328461EF0B5FA6846A2
:101C600003F054FC06F03EFB38BD38B50C460500C9
:101C70001BD004F0B1FF284603F0DEFB009090F883
:101C80007410A1420CD980F87540684603F03EFC00
:101C900028461EF099FA052128461EF037FB02E07F
:101CA000684603F033FC06F01DFB38BDFEB50D465B
:101CB000040022D0002D20D004F08EFF204603F037
:101CC000BBFB0190866F01A8009603F01FFC29461C
:101CD000684607F003FB70B10098B04208D0204678
:101CE00003F0AAFB01900099816701A803F00EFCA4
:101CF00020461EF069FA06F0F5FAFEBD00B589B07F
:101D000024216846FEF7FCFA192001900348006878
:101D1000806841686846884709B000BD50080020C7
:101D20002DE9F041294C0027676000F0ABF82780CF
:101D30006780A760E7606761A76100262761FEF7FB
:101D400071FA8046002567612088401C20806088E9
:101D500010B900F0AFF8A06060880004000C60804B
:101D60000AD100F0A7F8E060A168411A60698842D2
:101D700027D3A069884226D360690644681C0504FD
:101D80002D0CE0D0C4E904674046A761FEF74EFA87
:101D9000FEF748FA05462088401C2080608810B96C
:101DA00000F088F8A06060881021401C608008481E
:101DB0000FF074FB00F044F82846BDE8F041FEF750
:101DC00035BA6161D5E7A161D6E70000B000002017
:101DD000A05E012070B5FEF725FA084D6C69FEF78C
:101DE00025FA286984428CBF241A0024FEF71AFAC7
:101DF00000216961FEF71AFA204670BDB00000208C
:101E000070B5FEF70FFA054DAC69FEF70FFA2869B9
:101E100084428CBF201A002070BD0000B00000205A
:101E200010B5064C2088401C2080608810B900F056
:101E300041F8A0606088401C608010BDB0000020A8
:101E400010B50C4C6088401E0004000C608018BF68
:101E500010BD00F02FF8E060A168401A616981426E
:101E600003D3A169814202D310BD6061F9E7A0618B
:101E700010BD0000B000002001494860704700001C
:101E8000B000002010B508F0F5FC08490A6842F0DF
:101E900080720A60064900224A600A6842F0010224
:101EA0000A60BDE81040FFF7E7BF0000FCED00E06E
:101EB000001000E00148406870470000001000E09A
:101EC000154810B5016886B041F0800101600168D5
:101ED00001F080010591016841F4807101600068A2
:101EE000012400F4807005904020CDE90004032017
:101EF000CDE902406946094807F0EEFD0820009050
:101F00006946074807F0E8FD0648C0F88C420648D5
:101F1000C0F8984206B010BD30380240001C0240A4
:101F20000020024000004442008043422DE9F05F5F
:101F3000294E83460024306820F0C00030603068AD
:101F400030601E202FF0DEF80025244FDFF890A02F
:101F5000A8464FF0010900BFC7F8988202202FF071
:101F6000D1F8C7F898926006040EDAF80C0200283F
:101F70001CBF601CC4B202202FF0C4F8681CC5B29C
:101F8000082DE9D3BBF1000FC7F89882306820F024
:101F9000C0003060306840F0400030600ED0CAF8B9
:101FA0008C8202202FF0AEF8C7F8989202202FF012
:101FB000A9F8C7F898822046BDE8F09FCAF88C922D
:101FC00002202FF09FF8C7F8989202202FF09AF87D
:101FD000C7F89882EFE700000020024000804342EB
:101FE000000044422DE9F04706461648016821F0FA
:101FF000C0010160016841F040010160124C4FF0E6
:102000000008C4F8988202202FF07CF80025DFF841
:102010003C900127F009C9F88C027006060E0220D8
:102020002FF070F8C4F8987202202FF06BF8C4F803
:10203000988202202FF066F8681CC5B2082DE9D3FB
:10204000BDE8F08700200240008043420000444287
:1020500070B50F48016821F0C0010160016841F0CE
:10206000400101600B4C0120C4F88C020A4DC5F8F8
:1020700098021E2004F5237405F526752FF042F80A
:102080000026266002202FF03DF82E6070BD000073
:1020900000200240000044420080434270B50F48D7
:1020A000016821F0C0010160016841F04001016058
:1020B0000B4C0020C4F898020A4DC5F88C021E2073
:1020C00004F5267405F523752FF01CF8012626600B
:1020D00002202FF017F82E6070BD00000020024093
:1020E00000804342000044422DE9F0471F4D002488
:1020F000286820F0C0002860286828601C4E01274E
:10210000C6F88C72DFF86C80C8F8987202202EF046
:10211000F9FFD6F80C02A14618B3601CC4B2FA2C21
:1021200018D9286820F0C0002860286840F04000D6
:102130002860C8F89892C6F88C921E202EF0E2FF14
:10214000C8F8987202202EF0DDFFC6F88C720120CC
:10215000BDE8F08702202EF0D5FFD6F80C0200284B
:10216000DBD1C8F898920020BDE8F087002002403B
:10217000000044420080434200B583B01DF000FCE3
:102180000021009103460191044A0421044803F010
:102190009DFB0449486003B000BD0000BDFB020880
:1021A00098CB0C083002002000B583B0084800909E
:1021B00000220649CDE901125A238E224FF4E17123
:1021C00003201DF0D9F903B000BD000069FF02082B
:1021D000030006002DE9F041304886B00027016871
:1021E00041F0020101600068012600F00200059044
:1021F0004FF48050CDE900060320CDE90260DFF8FE
:10220000A0806946404607F067FCD8F8000020F03F
:102210004070C8F80000D8F8000040F08070C8F89E
:102220000000204CC4F8B07214202EF031FFC4F826
:10223000B0621E202EF066FFD8F80000002520F0C6
:102240004070C8F80000D8F80000C8F8000004E0AA
:10225000681CC5B201202EF055FFD4F8301211B120
:10226000642D04D2F4E7642D38BF002508D306B0EE
:102270003046BDE8F081681CC5B201202EF042FF57
:10228000D4F8301231B1642D38BF3846EFD206B0E1
:10229000BDE8F081642DEED3E9E70000303802405C
:1022A00000040240008040422DE9F34F474D83B0C7
:1022B000286820F040702860286840F0807028600E
:1022C000434E4FF00009C6F8B09214202EF0E0FE05
:1022D0004FF0010AC6F8B0A21E202EF013FF2868A6
:1022E000002420F0407028602868286004E0601C0A
:1022F000C4B201202EF006FFD6F8300210B1642CD3
:102300001BD2F4E7642C38BF002416D204E0601C12
:10231000C4B201202EF0F6FED6F8300258B1642C7B
:102320003CBF4FF00008EB4607D2002005464006B0
:10233000070E00240AE0642CE9D305B00120BDE8B3
:10234000F08F601CC4B201202EF0DCFED6F8300203
:10235000002818BF642CF4D3002404E0601CC4B22D
:1023600001202EF0CFFED6F8300208B9642CF5D348
:1023700028202EF0C7FED6F83002002814BF5046A1
:1023800048463843691CCDB2082DD0D30BF808005D
:1023900008F1010000F0FF08B8F1050FC5D39DF862
:1023A00000109DF801009DF803300A189DF8020006
:1023B00003441A449DF804309A4203D1049A1170E0
:1023C0000399087005B00020BDE8F08F00040240BA
:1023D000008040422DE9FC410C46050038D004F055
:1023E000FBFB112C14D0132C28460ED003F024F83C
:1023F000009000F05EFC0646684603F087F8204631
:102400002AF018F9074600241CE000F03BFB1BE013
:10241000284600F087F917E02146284600F04CFCDA
:10242000019070B100782AF005F900F0FF0801A8CA
:1024300003F06CF8B84504D12146284600F0DBFBD8
:1024400002E0641CB442E7DBBDE8FC4105F04ABF92
:10245000BDE8FC81F8B50C46050018D0002C16D05C
:1024600004F0BAFB284602F0E7FF0090C66B68460E
:1024700003F04CF82046FDF75AFF421C2146304637
:1024800003F068F828461DF09FFE05F02BFFF8BD0D
:102490002DE9FF4145680446284602F0CDFF019032
:1024A000D0F8886001A803F031F80EB1012700E0F0
:1024B0000027214628461CF09AFC002856D02068A8
:1024C000112844D006DC0B2863D00E2878D00F28C2
:1024D0002BD14FE0212805D026281AD0B0F5107F47
:1024E00023D139E0E068416800291EDD00680D282D
:1024F0001BD130460DF075FF002806DB30460DF08D
:1025000070FF0146284600F076FB284600F07EF872
:1025100075E0E068012809D00A2802D00B2871D1A3
:1025200011E00A2128461DF0F1FE6BE030460DF067
:1025300058FF002866DB30460DF053FF0146284661
:1025400000F059FB5BE0284600F060F85AE0FFB964
:10255000E068007A98BB55E0E06848B1007A08B1BD
:10256000012100E0022128461DF0D0FEBDE8FF81D8
:102570000321F8E72E46284602F05EFF0290D0F8CD
:102580008400056802A802F0C1FF0DB13046A847DB
:1025900038E0284602F050FF0090C06B03F01AF8B4
:1025A0000098D0F888001DF0E7F80098D0F8940063
:1025B00002F06EFE684602F0A9FF23E000E016E09C
:1025C000E068416800291DDD016820290FD006DC84
:1025D000092910D00A2915D01B2904D112E021297C
:1025E00010D022290ED02846FFF7F4FEBEE7284679
:1025F00000F0FAF806E01DF007FAB04202D12846D2
:102600001EF026F820461DF07FF8AFE738B504002D
:1026100016D004F0E1FA204602F00EFF0090D0F848
:10262000880040B11DF0A8F800990020C1F888008A
:1026300020461DF0C9FD684602F068FF05F052FE15
:1026400038BDF0B585B0B0F90850468A8469029665
:10265000CDE903540027CDE90017B0F90C10B0F90B
:102660001050B0F90E40B0F90A00194410442B463E
:10267000224600F003F805B0F0BD00002DE9FF5F31
:102680001D46DDE90F8691468A4683460E9F129CC1
:1026900004F0A2FA21496C34CDE90214CDE90078A6
:1026A0004FF0FF334A46514658461CF075FF040070
:1026B0002DD002F0C1FE1022009011991CF08AFD6D
:1026C00000983822164980F88C604C30FDF7F1FDF7
:1026D000134E0098361F3168C0F88410002180F82E
:1026E0009010C586204600F0C3FA684602F00EFF3F
:1026F00002F06DFF0546204602F09EFE0090C56385
:10270000684602F003FF306841682046884705F0BC
:10271000E9FD04B02046BDE8F09F000091240008C8
:102720009005002010B5044600F098F9010000D093
:10273000411E2046BDE8104000F05DBAF8B50546E0
:10274000006802F079FE0090448ED0F888606846F8
:1027500002F0DCFE06B1012604F0010428681EF038
:1027600009FC0EB1002006E00CB1012003E008B125
:10277000022000E003201B4951F82010686858B37C
:1027800002280CD0052802D0122828D103E02846C0
:1027900021F030FA23E0284624F068F81FE06A6947
:1027A000E8694FF0FF33801AA0F1080203EB6204DE
:1027B000421CAB69001B4510A3EB6206C86905F01B
:1027C000C0F806E03219311B284603F05FFC641E96
:1027D0006D1C002CF6DA02E028681DF0BFFF002017
:1027E000F8BD00002CEA0E082DE9F14F9EB01E98AE
:1027F00000287DD004F0F0F91E9802F01DFE0B9029
:102800001E981DF012FA03900B98B0F9367090F8EC
:1028100090101891C16B0A9190F88C90B0F9341017
:10282000159100F046FA82460B9804ACB0F88E1071
:102830001491B0F982101391C16C1291D0E9001279
:10284000CDE90C12D0F894B0002100BF00EB81025A
:10285000126D44F82120491C0329F7D3002107AD4C
:1028600000EB8102D26D45F82120491C0329F7D3E2
:1028700000210EAE00EB8102126F46F82120491CA8
:102880000329F7D30BA802F041FE1E981DF04CF966
:1028900002F0D2FD1190D0F8008011A802F036FEAF
:1028A0004FEA284042420FFA88F041420CA804F057
:1028B00003FF5FEA897003D5BDF83200C01B01E059
:1028C000BDF83600ADF832001E981DF02DF9014616
:1028D00003980222CDE900070292BDF93230BDF91A
:1028E000302000200DF001FD80465FEAC97000E055
:1028F0007CE007D0404618990DF0C1FF0121404609
:102900000DF0E2FE002708E039460A9802F096FE34
:10291000014640460DF0A4FB7F1C5745F4D3002729
:10292000394654F8272040460DF0F8FE7F1C032F4F
:10293000F6D30024214655F8242040460EF038F8FE
:10294000641C032CF6D30024214656F8242040466C
:102950000DF075FF641C032CF6D35FEA0B001FD04B
:1029600002F06AFD169030F8025B0024064601274B
:1029700011E000BF06EBD40004F00701007807FA6D
:1029800001F1084201D0012200E000222146404628
:102990000DF0F6FE641CAC42ECDB16A802F0B6FDAE
:1029A000404614990DF01FFF404612990DF0CFFEDE
:1029B000404613990DF0E7FF40461DF049FE4046A2
:1029C0001E990DF027FF404615990DF075FF012166
:1029D0001E981DF09BFC1E9802F02EFD0B90C0F877
:1029E00088800BA802F092FD05F07CFC1FB0BDE8CA
:1029F000F08F2DE9FC411D4616460F465FEA0008A0
:102A00004FF0010427D0002D25DD04F0E5F8404605
:102A100002F012FD0190C06B02F004FE874215D255
:102A20003946404600F048F9009078B1FDF77FFC48
:102A30000446A84200DD2C4630460099FDF799FC7B
:102A400000203055684602F061FD002401A802F024
:102A50005DFD05F047FC2046BDE8FC8138B505006A
:102A60004FF000040CD004F0B7F8284602F0E4FC64
:102A70000090B0F93440684602F048FD05F032FCA1
:102A8000204638BD10B50446FFF7E8FF411C20463C
:102A9000BDE8104000F0AFB8F8B50E46040021D0F4
:102AA00004F09AF8204602F0C7FC009090F88C10D1
:102AB000D0F8885021F001040EB144F00104A14285
:102AC0000BD080F88C40684602F020FD45B104F040
:102AD000010128460DF0F8FD02E0684602F016FDFF
:102AE00005F000FCF8BDF8B50C46060028D004F04F
:102AF00073F8304602F0A0FC0090D0F88850C06C0B
:102B000003F044FD07460098C464684602F0FEFCEA
:102B1000304600F0ADF830461DF056FB75B120464A
:102B200003F034FDB84205D03046FFF76FFD304664
:102B3000FFF75AFE214628460DF009FE05F0D2FBAC
:102B4000F8BD38B50C46050012D004F045F828460B
:102B500002F072FC009050F8885FC480684602F072
:102B6000D5FC1DB1214628460DF03DFE05F0BAFB0F
:102B700038BDF8B50C4605004FF0000618D004F03B
:102B80002BF8284602F058FC0090B0F93660D0F8D7
:102B90008850C486684602F0B9FC3DB128461DF055
:102BA00044F80146224628461DF02DFE05F09AFB0A
:102BB0003046F8BD38B50C4605001BD004F00CF8C3
:102BC000284602F039FC009090F89010D0F8885018
:102BD0008C420AD080F89040684602F097FC3DB1E4
:102BE000214628460DF04BFE02E0684602F08EFCBE
:102BF00005F078FB38BD38B50C46050022D003F04F
:102C0000EBFF284602F018FC009000F052F800B1EB
:102C1000401E844200DD04460098B0F93410A14201
:102C20000BD08486684602F071FC28461DF0CCFA71
:102C3000042128461DF06AFB02E0684602F066FCAB
:102C400005F050FB38BD38B50C4605000FD003F039
:102C5000C3FF284602F0F0FB0090A0F882406846CF
:102C600002F054FC28461DF0AFFA05F03BFB38BDDE
:102C7000F8B5044602F0E0FB01460090B0F93800D8
:102C800010B9C86C03F082FC0099CA6AB1F98030AF
:102C9000126800EB4300161808461DF0F0FF0546C9
:102CA000684602F033FC3246294620461DF0ABFD53
:102CB000F8BDC06B02F0B6BC38B50D46002402F07A
:102CC000BBFB0090C06B294602F0B8FC0546684685
:102CD00002F01CFC1DB1284602F0AEFB0446204663
:102CE00038BD70472DE9FC470E465FEA00097FD0EA
:102CF00003F072FF484602F09FFB009090F854707A
:102D0000D0F85880456BC46C684602F0FFFBB8F100
:102D1000000F04D0314648464246904761E0122EEB
:102D200018D006DC082E43D0102E3CD0112E06D130
:102D300012E0132E21D01D2E43D01E2E3DD0202E6A
:102D40004FDB17B1484620F03FFDB1B2484626F0B0
:102D5000CAFC60B3611C27E04DB3284602F06CFB4F
:102D600005462146019005F0ABF94419204605F0CF
:102D700055F901462346012210E0C5B1284602F06C
:102D80005BFB05462146019005F09AF9441920465F
:102D900005F044F9014623464FF0FF3248461FF044
:102DA00064F901A81BE0611E484600F08CFA18E0A7
:102DB000BCB1611E484600F086FA484620F004FD8A
:102DC0000FE0484602F038FB0090012F12D001219D
:102DD00080F854102146484600F075FA684602F023
:102DE00095FB48461DF0F0F900E001E005F07AFAA5
:102DF000BDE8FC87002180F85410EFE7FEB5446879
:102E0000054620461EF0B6F80646294620461BF029
:102E1000EEFF002837D028680F2830D004DC0B28BC
:102E200032D00E2853D13AE0A0F58070133804D088
:102E3000A0F580702D384AD110E020461DF046FBE9
:102E40002046002128F027F8204602F0F5FA0190EC
:102E5000C06F00211DF011FB01A81DE0E86860B102
:102E6000017A29B10168204600F0EFF8012100E065
:102E7000022120461DF04AFA29E00321F9E7012149
:102E8000204628F008F8FEBD204602F0D5FA009052
:102E9000343002F027FA684602F038FB17E0B6B18A
:102EA000E8684168002912DD01681B290FD006DCA3
:102EB00009290CD00A290AD00D2904D107E02129BB
:102EC00005D0222903D02046FFF70CFFFEBD28467F
:102ED0001CF01AFCFEBDF0B587B00DF1300E9EE877
:102EE000F0104FF0000E8DE8F05000F003F807B03E
:102EF000F0BD00002DE9F04F85B01F46DDE912540A
:102F0000DDE90E6A90468946834603F065FE0DF1C1
:102F1000040C4AF480501F49583400968CE8130082
:102F20003B464246494658461CF036FB04002AD030
:102F300002F082FA1022049011991CF04BF90498C7
:102F40001C2215496030FDF7B4F9049A012082F87B
:102F50005500681C00D0012082F88000002D00DCA4
:102F600008252DB2158700205087506304A86D1CDA
:102F700002F0CCFA2946204626F051F818B920462E
:102F80001CF0FAFB002405F0ADF905B02046BDE8C1
:102F9000F08F0000FD2D00084C09002001488068DA
:102FA000704700004C09002038B504000DD003F034
:102FB00013FE204602F040FA0090846E684602F04C
:102FC000A5FA05F08FF9204638BD002038BD38B588
:102FD00005004FF000040BD003F0FEFD284602F080
:102FE0002BFA0090846C684602F090FA05F07AF9AA
:102FF000204638BDF8B515460C46060013D003F040
:10300000EBFD304602F018FA009038B1022C05D2E0
:1030100000EB8400456730461DF0D6F8684602F0A4
:1030200075FA05F05FF9F8BD70B50D46044603F07A
:10303000D3FD34B12946204600F045F920461DF065
:10304000C3F8BDE8704005F04DB92DE9F04186B0F8
:103050000C46060055D003F0BFFD304602F0ECF9F7
:103060000090406B98B302F0E7F903900098806EEF
:1030700004F096FC804630461CF0D7FD07460398C6
:1030800003F05AFA0546009890F8601001F0030129
:10309000012916D002290DD0416EC06A006808448B
:1030A000241A641E039805F097FF0146002C0FDADE
:1030B000002115E0781B401C00EBD070A4EB6004ED
:1030C000F0E7406E791B081A241A641CEAE713E043
:1030D000AC4205DC02462146039805F027FF014675
:1030E000304600F0F0F803A802F010FA404604F071
:1030F00057FC30461DF068F8684602F007FA05F004
:10310000F1F806B0BDE8F0812DE9F8431D46DDE990
:10311000084916460F46804603F05EFD5FEA080048
:1031200040D002F089F92149009081652049C165AC
:103130000021C0E91271E0E90F650121047280F8F5
:103140001A90017690F84470684602F0DFF987B172
:10315000284624F0C4FE0546304624F0C0FE0CB1DB
:10316000401C6D1C854200DD28460146404600F0AB
:103170003FF8404629F0AAFA404602F05DF9009077
:1031800000F08CF80B490978884205D10098C16C91
:103190004046491C00F097F8684602F0B7F94046EF
:1031A0001DF012F805F09EF8BDE8F88371170208CB
:1031B000CDC60208C403002000294FF0100101D041
:1031C0001BF0A9BE1BF0F2BD38B50D4604000ED0B1
:1031D00003F002FD204602F02FF90090856620469C
:1031E0001CF0F2FF684602F091F905F07BF838BD5B
:1031F0007CB50C46060033D003F0EEFC304602F0FE
:103200001BF90090B0F93810458FA14223D012DD90
:10321000406B80B102F010F9019005F0DDFEA04294
:1032200006DD2146019804F04BFF019A002111545C
:1032300001A802F06BF9684602F068F9611B30469C
:10324000491C25F0ECFE304602F0F6F800900487A9
:1032500030461CF0B9FF684602F058F905F042F814
:103260007CBDF8B515460C46060013D003F0B4FC3F
:10327000304602F0E1F8009038B1022C05D200EBA4
:103280008400C56630461CF09FFF684602F03EF998
:1032900005F028F8F8BD002229F05BB838B50546DE
:1032A000406B002468B102F0C7F800900446E96C56
:1032B00004F006FF204404F0B1FE0446684602F024
:1032C00025F9204638BD1CB50C4602F0B5F8009033
:1032D000406BF0B102F0B0F8019005F07DFE00996E
:1032E00091F8542002B10122002C00DA002484421B
:1032F00000DD0446B1F93800801AA04200DA044625
:10330000C86CA04200D0CC640020086501A802F07F
:10331000FDF8684602F0FAF81CBD10B50FF0C0FBCE
:103320004FF4805006F0CCFBBDE810400FF0C8BB56
:10333000102A0CBFC268C26AD1E9002342EA032204
:103340000B89097B4FEA034343EA016142EA010129
:103350000CBFC160C1624FF000007047102A0CBF63
:103360008268826AD1E9002342EA03220B89097B41
:103370004FEA034343EA016142EA01010CBF816065
:1033800081624FF00000704710B40A68102A0CBF29
:103390000268026A0F4B02EA0302D1E9013C43EAE8
:1033A0000C03D1E903C44CEA040C43EA0C03D1F842
:1033B00014C0896943EA4C2343EA413141EA0201DE
:1033C00041F008010CBF016001624FF0000010BC29
:1033D000704700008101F0FF30B4B3F5804F18BF93
:1033E0006FF0704105D000BF40F8221030BC0020C3
:1033F000704750F82230DFF828C08D8903EA0C03AB
:10340000D1E900C44CEA041C8C688969240244EAAE
:1034100005444CEA040C4CEA01011943E4E70000BE
:103420000000F0CF70B4D1F800C050F82C201B4B36
:10343000D1E903561A40D1E901431C4335432C43DB
:103440004D692C438D692C43CD692C430D6A2C4367
:103450004D6A2C438D6A2C43CD6A2C43CD6B2C4393
:103460000D6B2C434D6B2C432243082B08BF42F0BD
:10347000400240F82C204A6BB2F5801F0AD10A683E
:1034800042B14FF480720A61016841F4807141F4E5
:103490008011016070BC0020704700008000E0FFD8
:1034A00070B400EB820253688D8903F0404CD1E97F
:1034B000003443EA04138C68240244EA05441C43A4
:1034C0000D8A0F4B03EB05552C430D7D5E0106EB7A
:1034D00005652C438D692C4344EA0C0CC2F804C0EA
:1034E000026812F4801F07D04268098A22F4700231
:1034F00003EB01511143416070BC00207047000094
:103500000000F0FF10B4D1E901321343D1E903C246
:103510004CEA020213434A690C681A438B69012C76
:1035200042EA030CCB690A6A496A04686FF30E0425
:1035300006D04CEA03031A4311432143016009E01A
:103540001A4321430A43416802606FF30E014CEABB
:103550000101416010BC00207047426942EA41010C
:10356000416100207047F8B515460446D1E90002D4
:1035700010438A686FF01F03C96803EB421242EAE6
:10358000412108430090206106F0DEFB0646A06959
:1035900010F0200F0ED0B5F1FF3F07D025B106F097
:1035A000D3FB801BA84201D90320F8BDA06910F00D
:1035B000200FF0D10020F8BD2DE9F0010B686FF06D
:1035C0000F05A3F1010C4B682C0105EB03134CEA2A
:1035D000030C8B684FEA042804EB03234CEA030531
:1035E0000B8A270308EB034C26048B8ACC68097EE0
:1035F00007EB035306EB0161012A0ED082683613F4
:1036000006EB04342C4344EA0C0C4CEA030302F0AE
:10361000704219431143816013E0C26845EA0C0C03
:1036200002F070424CEA0101114382684FEA043C07
:10363000ACF5805C02F070424CEA03031A43C160AF
:103640008260BDE8F001002070470000F0B57249CB
:103650008BB00024086840F080000860086800F023
:1036600080000090086840F48070086008680125B8
:1036700000F4807000908020CDE905040320CDE99E
:10368000075005A9654806F027FA2802CDE9050587
:1036900005A9634806F020FAFEF712FC614EC6F851
:1036A000A042142006F528762DF0F2FC3560322079
:1036B0002DF0EEFC8DF8044001AD0126FEF7C8FCAC
:1036C0007020FEF78FFCFEF70FFD2046FEF78AFC08
:1036D000FEF70AFD285DFEF785FCFEF705FD18B92B
:1036E000601CC4B2B442F5D3FEF7D8FC01AD01268C
:1036F000FEF7AEFC7020FEF775FCFEF7F5FCA4208B
:10370000FEF770FCFEF7F0FC0024285DFEF76AFC73
:10371000FEF7EAFC18B9601CC4B2B442F5D3FEF758
:10372000BDFC16208DF8040001AD0126FEF790FCCB
:103730007020FEF757FCFEF7D7FC8020FEF752FC06
:10374000FEF7D2FC0024285DFEF74CFCFEF7CCFC13
:1037500018B9601CC4B2B442F5D3FEF79FFC0C202C
:103760008DF8040001AD0126FEF772FC7020FEF713
:1037700039FCFEF7B9FC8820FEF734FCFEF7B4FCF8
:103780000024285DFEF72EFCFEF7AEFC18B9601C85
:10379000C4B2B442F5D3FEF781FC01AE0225FEF7B8
:1037A00057FC7020FEF71EFCFEF79EFCA120FEF7E2
:1037B00019FCFEF799FCFEF74BFC7120FEF712FC9A
:1037C000FEF792FC00246F1E03E0BC4208BF0020FD
:1037D00000D00120FEF7AAFB3055601CC4B2AC42F9
:1037E000F3D3FEF75BFC9DF80410302904BF9DF86D
:1037F0000500032807D09DF8050001281FBF0228F7
:1038000001200BB0F0BDC0B200EB012106A029F0F1
:10381000D7FC0BB00020F0BD30380240001C024045
:1038200000200240000044424354502049443A25BD
:10383000780D0A002DE9F14F774982B0DFF8E09169
:1038400008784FF00008401CC0B208707349A1FB13
:103850000021C908494201EB810110EB410101D06F
:103860000A287CD202AE0125FEF7F2FB7020FEF79B
:10387000B9FBFEF739FC0220FEF7B4FBFEF734FC7F
:10388000FEF7E6FB7120FEF7ADFBFEF72DFC0024F2
:103890006F1E03E0BC4218BF012000D10020FEF7DC
:1038A00045FB3055601CC4B2AC42F3D3FEF7F6FBC7
:1038B0009DF8080010F00F0F51D000F00F000628FF
:1038C0004DD2FF2101FA00F0C04340F0C000DFF804
:1038D00054B189F820004FF000084FF0010A00BFF2
:1038E00099F820100AFA08F001425DD01BF8184040
:1038F0006E460425FEF7ACFB7020FEF773FBFEF767
:10390000F3FBE0B2FEF76EFBFEF7EEFBFEF7A0FB6B
:103910007120FEF767FBFEF7E7FB00246F1E03E054
:10392000BC4208BF002000D00120FEF7FFFA30554E
:10393000601CC4B2AC42F3D3FEF7B0FB99F8300080
:103940009DF8001010F0010F9DF8010001F00F012B
:1039500000EB01210ED009EB4800C18200E03AE003
:103960009DF802209DF8031002F00F0201EB0221E6
:1039700081810EE02C480088411A09EB48008181C2
:103980009DF802209DF8031002F00F0201EB0221C6
:10399000C1829DF8000000F0F000802804D009EBFF
:1039A00048000021C182818108F1010000F0FF0878
:1039B000B8F1050F94D3B9F80C104FF001080029A5
:1039C00001BFB9F81600002800208DF808004FF05C
:1039D0000000114908709DF8080010F01F0F11D168
:1039E00099F8200010F0800F18BF20F0800007D158
:1039F0004FF6FF71A9F80C10A9F8161000F0E000BE
:103A000089F8200004480178F02984BF0A21017058
:103A1000404603B0BDE8F08F88000020CDCCCCCC70
:103A20004C000020D2B30308A07300202DE9F0471A
:103A300082B000272B4C894606460DF10408BA4691
:103A4000A0790025002814D9CDF8008060884A4666
:103A50008308A079002170430EF00CFA6088BDF84D
:103A60000410B1EB900F04D1681C85B2A079A84274
:103A7000EAD8A079A84203D102B00020BDE8F087BF
:103A800030460DF06BFF20B1394617A029F098FBA6
:103A90001BE0B9F1FF3F18D0ADF804A0A0790028D1
:103AA00013D96088BDF804108308A079002206FBB2
:103AB000001011460EF070FBBDF80400401C80B2EF
:103AC000ADF80400A1798142EBD8781C87B2032FAE
:103AD000B6D331460AA029F073FB02B00120BDE83D
:103AE000F0870000208800206572726F7220657276
:103AF00061736520626C6F636B3A25640D0A000088
:103B000062616420626C6F636B20636865636B65E0
:103B1000643A25640D0A00002DE9FF4F3F4E01462F
:103B20009246B07981B0B1FBF0F2B1FBF0F800FB46
:103B3000121B1F46404600F0E5F804467089844297
:103B400003D905B00120BDE8F08FB0790025002829
:103B50003FD95D451AD3CFB171880298081AB8428F
:103B60002CBF1FFA87F91FFA80F9CDF80090B079C1
:103B7000534604FB005108FB0050029A0DF0ECFC88
:103B80000021CA44A7EB0907029106E0C0B204FB7A
:103B9000005108FB00500DF0CDFDA8B14FF0AA3048
:103BA0000090B079042360436A4600210EF022FBA6
:103BB000B079042360436A460021401C0EF01AFBD2
:103BC000012000F02DF8B5E7681C85B2B079A84255
:103BD000BFD8C0B2A8421CD1CC218DF8001001235F
:103BE00060436A4619460EF005FB40460DF0B6FEEE
:103BF00072890020002A88BF71690AD931F8103013
:103C0000434502D121F8104003E0401C80B28242BB
:103C1000F4D805B00020BDE8F08F00002088002017
:103C2000F8B5314C0646608988B1616910F0010F22
:103C30004FF6FF72A1F1020118BF21F8022F60892F
:103C4000430804D04A8021F8042F5B1EFAD10020DB
:103C5000A0810546608900281FD9A0790423684304
:103C60006A4600210EF040F99DF80000FF280CD1B3
:103C700006B3A079012368436A460021401C0EF078
:103C800033F99DF80000FF2814D0294617A029F029
:103C900097FA60896D1CA842DFD881B2002918BF4D
:103CA000002088BF626918D932F81030994211D8C3
:103CB000E08112E09DF802009DF8031000EB012066
:103CC0006189814284BF616921F81050A089401C3C
:103CD000A081DEE7401C8142E6D8E089642834BF39
:103CE00002200020F8BD00002088002062616420CE
:103CF000626C6F636B20696E6465783A25640D0AA7
:103D0000000000002DE9F84F2B4F2C4E814678899A
:103D10003168401E884228BF08464AD34FF0000A47
:103D200009F00105CDF800A0441C4FF0FF3B4FF017
:103D3000010811D028EA0400A8420BD1B879611E0D
:103D4000484304236A4600210EF0CEF80098B0F1F3
:103D5000FF3F20D0641EEDD158467C893268611E39
:103D60008A421CD2316009F00105CDF800A0E4B10F
:103D700028EA0400A8420BD1B879611E4843042305
:103D80006A4600210EF0B0F80098B0F1FF3F05D070
:103D9000641EEDD109E0601E01D2DEE7601EB0F1C5
:103DA000FF3F1CBF3060BDE8F88F4FF0FF30BDE82B
:103DB000F88F3060B2E700002088002084000020E7
:103DC000F0B5474C83B00026A681608935460028AF
:103DD00088BF4FF0AA3739D98DF80460A079012344
:103DE000684301AA00210EF07FF89DF80400FF2827
:103DF00028D1A179012301FB05F001AA0021401C73
:103E00000EF072F89DF80400FF281BD128460DF033
:103E1000A5FDA0B1294633A029F0D2F90197A079D8
:103E20000423684301AA00210EF0E4F9A0790423D9
:103E3000684301AA0021401C0EF0DCF902E0A089D1
:103E4000401CA08160896D1CA842C5D8A18929A009
:103E500029F0B6F9A08964283EBF012003B0F0BD67
:103E6000C0EB4010284900EB4000A1FB00104709BF
:103E700000966089002500282AD900BF8DF80460CB
:103E8000A0790123684301AA00210EF02DF89DF8C6
:103E90000400FF2818D1A179012301FB05F001AA34
:103EA0000021401C0EF020F89DF80400FF280BD1E3
:103EB000A079022368436A4619460EF09BF90098E0
:103EC000401C0090B84203D060896D1CA842D5D830
:103ED0000120FFF7A5FE002818BF022003B0F0BDA7
:103EE0002088002042616420626C6F636B3A256415
:103EF0000D0A0000676F6F645F626C6F636B6E75B5
:103F00006D3A25640D0A00001F85EB5110B50DF0C8
:103F10004DFD002821D1194C616900291CBF0020EA
:103F200031F09EFD60894100002031F0D9FD6061D3
:103F300061894900FCF7E4F9606970B10120FFF77D
:103F40006FFE60B10EA029F03BF9FFF739FF90B189
:103F500011A029F035F9022010BD012010BD6189A2
:103F600012A029F02DF9A18916A029F029F9E189DB
:103F700019A029F025F9002010BD0000208800209C
:103F8000666F726D6174206E616E6420666C617321
:103F9000682E2E2E0D0A0000666F726D6174206609
:103FA00061696C6564210D0A00000000746F746122
:103FB0006C20626C6F636B206E756D3A25640D0A20
:103FC00000000000676F6F6420626C6F636B206E8F
:103FD000756D3A25640D0A0076616C696420626C27
:103FE0006F636B206E756D3A25640D0A000000004A
:103FF0002DE9FF4F81B05FEA030914468A464FF06E
:1040000000057CD04E480AEB050C41888379B1FB52
:10401000F4F25A43BCFBF2F2C689964232BF4FF625
:10402000FF72466936F812204689964203D805B0D9
:104030000120BDE8F08FB1FBF4F05843BCFBF0F673
:1040400000FB16C06043B0FBF1FC02FB03C7B0FBF2
:10405000F1F201FB1208A1EB0800B0FBF4F086B20C
:10406000A9EB0500864288BF86B206FB04FB1FFA57
:104070008BF31FFA88F13846019A0DF019FD0328D9
:1040800009D11FFA8BF31FFA88F13846019A0DF017
:104090000FFD032808D0042818BF002844D005B01D
:1040A0004FF00200BDE8F08F5B461FFA88F13846FA
:1040B000019AFFF731FDDFF888804FF0FF3198F863
:1040C0000600B7FBF0F0FFF7B1FC80B998F80600E6
:1040D0000021B7FBF0F0FFF7A9FC834698F8060033
:1040E000B7FBF0F00DF03AFCBBF1000F1CD098F8D4
:1040F0000600B7FBF0F74FF0AA30009000E01BE09D
:1041000098F80600042378436A4600210EF072F8FE
:1041100098F80600042378436A460021401C0EF0FC
:1041200069F80120FFF77CFD0198354404FB060087
:1041300001904D45FFF466AF05B00020BDE8F08F5B
:10414000208800202DE9FF4F85B04FF0FF3004900C
:10415000089816468A464FF0000800287ED94B483A
:104160000AEB080C41888379B1FBF6F25A43BCFB99
:10417000F2F2C489944232BF4FF6FF75446934F8B5
:1041800012504289AA4203D809B00120BDE8F08F3D
:10419000B1FBF6F05843BCFBF0F200FB12C000FB91
:1041A00006FBBBFBF1F005FB03000290BBFBF1F04B
:1041B00001FB10B9A1EB090080B2B0FBF6F0089941
:1041C000ADF80400A1EB08018CB20391A04298BFA6
:1041D000044604FB06F701A800901FFA89F1C7F313
:1041E0008F034FF0FF3202980DF044FE18B109B072
:1041F0000220BDE8F08FBDF80400B0EB970F17D197
:10420000BBB21FFA89F1059A02980DF007FF78B941
:104210000498A8422CD0CC208DF800001B48012324
:104220006A468079194668430DF0E4FF0495F8B1B9
:104230001648817940884843A0EB0B00B0FBF6F0AC
:10424000039980B28CB2ADF80400844228BF0446C2
:1042500004FB06F71FFA89F13B4600E012E0059ADD
:104260000298FFF759FC18B109B00320BDE8F08FA0
:1042700008EB04000599804608983944059180456B
:10428000FFF46DAF09B00020BDE8F08F208800205A
:104290002DE9F0430446C56887B090468946002062
:1042A00003F072FB064625B1287910B146F00200F2
:1042B00001E026F0020003F067FB2069012558B1F8
:1042C000D4E902128DE826000395638822880468E9
:1042D00041464846A0471EE0124F134B214638681E
:1042E0001B68427CE068984730B9E088012801D01B
:1042F000002001E03868806BA288E388A1680095FF
:10430000CDE90410CDE90232019563882288414647
:10431000484609F0BBFF07B03046BDE8F04303F064
:1043200033BB0000D0030020C80300201CB50024CC
:10433000019401AC009400F0E7F81CBD2DE9FF4F9B
:1043400083B0814606988A46A0EB0A08109E00209A
:104350000090A2EB09043568934654EA080018D08F
:104360002046FCF779FD07464046FCF775FD87427D
:104370000BDA2046444680464846D1468246584697
:10438000DDF818B0069001200090002C07DD2046D3
:1043900006E007B04846BDE8F04F00F03BB9604288
:1043A000A0420AD04846D9466442C8F10008834674
:1043B0004FF0FF37DDF818A000E001275148B8F1B1
:1043C000000F11D004EBD4714FEA610B01DACBF18D
:1043D000000B4C480068807E88B3002F02DA3068FA
:1043E0002044306000257BE000990029016821D03D
:1043F000897E11B10027804615E007B05A4649462C
:104400005046BDE8F04F0AF025B928466D1C27F04C
:1044100097FB38B9D8F8000009EB0701406E4268F5
:10442000504690477F1CA742EFDD6D1E356007B0F8
:10443000BDE8F08F8A7E1AB10027804617E019E0A8
:10444000486E5A465146036807B04846BDE8F04FEB
:10445000184728466D1C27F073FB38B9D8F80010B0
:1044600009EB0700496E4A68514690477F1CA742F6
:10447000EFDDDAE700250FE008FB05B090FBF4F173
:1044800001EB0A00009951B11E4A09EB05011268BF
:10449000526E526890476D1CA542EDDDC7E7194981
:1044A00009EB05030968496E4A6801461846F1E7B9
:1044B00008FB05B090FBF4F101EB0A0001903068B5
:1044C0003844306027F03CFB48B9009890B10D4863
:1044D00009EB05010068406E4268019890476D1C29
:1044E000A542E5DD3068002F01DA20443060C01BB2
:1044F00030609CE7034909EB05000968496E4A688A
:104500000199EBE7D00300202DE9FF470F46404912
:104510001646804609680C981D460A7E012A1CD062
:10452000A8EB0600791B50EA01031CD0A2F1010997
:1045300028F0C0FE00F58060824604F0BEFF00FB5C
:1045400009F4504604F0BEFF00FB09F1002C0CDA20
:10455000C4F50070801240420AE0009032463946AD
:104560004046FFF7EBFEBDE8FF8704F50074A0129C
:10457000002904DAC1F5007189124C4202E001F50C
:1045800000718C12002804DD411C01EBD17149102F
:1045900003E000EBD0714910401E00EBD0704210D8
:1045A000002C04DD601C00EBD070401003E004EB35
:1045B000D4704010641E04EBD47308EB0104ADF812
:1045C00000403C18ADF80240A8EB02045B10B21AA0
:1045D000ADF80440ADF808203144FC1AEA1AADF8F1
:1045E0000C102844ADF80A20ADF80E000023ADF8F9
:1045F00006401A460421684600F08CF839464046C9
:1046000021F0E0FF2946304621F0DCFFABE7000057
:10461000D0030020064A13681A7E012A05D0521ED4
:1046200002EBD272521000F005B85A6E5268104771
:10463000D00300202DE9F05F0646884640F2C320F3
:1046400002FB00F14FF47A7091FBF0F702FB02F1EC
:1046500002EBD27001EB600B1446B118234A301BF9
:104660007F1C1268526E13680A464146984701251E
:1046700038E000BF05FB05F004FB040159451CDDD3
:10468000BC4219DD194B06EB050AA6EB05091B68B0
:10469000AAF1010208EB04015B6E09F101001B683D
:1046A0009847124BAAF10102A8EB04011B6809F11B
:1046B00001005B6E1B689847641E0C4B3219301B5F
:1046C0001B68924608EB05015B6E81461B689847A4
:1046D000064B5246A8EB05011B6848465B6E1B68FB
:1046E00098476D1CBD42C5DDBDE8F09FD00300209A
:1046F00070B514460E4605460119001B00F066FD14
:1047000022463146284622F00BFDBDE8704000F0FD
:104710003DBC00002DE9FF4F43F6FF740F46664293
:1047200083B09B46814600210BE000BF09EB81006E
:10473000B0F90200A04200DA0446B04200DD0646AD
:10474000491CB942F2DB67480068406900280DD077
:10475000B0F906101A46A1EB0B01B14200DA0E4681
:10476000B0F90200801AA04200DD0446B4E0DFF890
:1047700078A100200546CAF8000088E0781E85422E
:1047800001DA6B1C00E0002309EB850C09EB8302C6
:10479000BCF90200B2F90210A04244D1A14215D1E5
:1047A00039F92330059A39F9251003EB020C4D4AEB
:1047B00005981268084404EB0B01526E60451368BB
:1047C00001DA62462AE00246604627E02846A4460F
:1047D0004FF000087A1E0BE008B1401E00E0781E82
:1047E00009EB8003B3F90230634504D108F10108F5
:1047F0009045F1DB2346A34248D01A1B39F9250026
:10480000A1EB040C059B92EA0C0F09D4354A18441D
:1048100004EB0B011268526E13680246984735E0AC
:104820001CF0CCFE32E0A14230D001DBA04203DD1F
:10483000A0422BDBA14229DCE04688420ADC034689
:10484000A04223DC0846A14220DBB8F900C0B2F93F
:10485000001008E00B46A14218DCA04216DBB2F9BA
:1048600000C0B8F90010E21AA1EB0C015143002975
:10487000A0EB030202DD01EB620102E0A1EB6201A9
:10488000491CC01A91FBF0F06044C9E76D1CBD42A1
:10489000FFF674AF0598009004EB0B000190002028
:1048A0008046054613E01149B8F1000F31F915A013
:1048B00009D0009901EB0A0208440A490968496EC7
:1048C0000B680199984788F0010850466D1C06490D
:1048D00009688D42E7DB641CB4427FF748AF07B03C
:1048E000BDE8F08FD0030020640B0020DC810120A4
:1048F00010B5002003F01AF86FF07F4003F021F8A4
:10490000012003F09BF8002003F0A6F8002003F03C
:10491000B3F8002003F038F80448006803F040F8CA
:10492000BDE81040002003F05BB80000CC0300207D
:104930002DE9F04FDFF828B191B04FF0FF35DBF8EB
:104940000030B3F922100691DE69B3F92490F469BE
:10495000A189814206D8E289824203D3471AD4F85A
:10496000008012E0D4E9018100296FD00A888242D8
:104970006CD84D88854269D3801A82B2486800EBB2
:104980008200B0F90070B0F90250781C5ED0307E21
:10499000A17C10FB01FA217CCDE90701B3F92A6063
:1049A00030460AF029FFC0B20E90DBF8000007FB8A
:1049B0000A81A37C826B0127CDE90412CDE9027341
:1049C000C069089AC17E807ECDE90001DDE9060359
:1049D000494609F05BFC681C18D046F002000AF05A
:1049E0000BFFDBF80000A37C05FB0A81826BCDE99D
:1049F0000273CDE90412C069089AC17E807ECDE9B8
:104A00000001DDE90603494609F040FCDBF800003F
:104A10005D46C069417E007E814214D9022E12D0CB
:104A200086F004000AF0E8FE2868C069027EC37EB2
:104A300012FB0391437E857E089A06984B4412FB35
:104A400005020AF087F80E980AF0D6FEDBF800009F
:104A5000627C418C1144418411B0BDE8F08F0000AC
:104A6000D003002004480068C069C06909B1027C15
:104A70000A60407C70470000D003002002200880BC
:104A80007047C06982898A4202D8C2898A4210D29C
:104A9000806880B102888A420DD843888B420AD34D
:104AA000406800EB8100A0EB8200B0F90000002814
:104AB00001DB012070470020704700002DE9F04322
:104AC000304C034687B020681946B0F92A60C069A7
:104AD000C06900F001FA002850D041680088181A17
:104AE00001EBC0053046AF780AF086FE81462068AB
:104AF0006A680123816BCDE90237CDE90421C169E0
:104B0000CB7E8A7ECDE900230B7EB0F924102A7873
:104B1000B0F9220009F0BAFB2068C069417E027E2C
:104B200091421FD9C07E11FB00F812FB00F7022E44
:104B300018D001F0AEFC064601F074FC02F001FF53
:104B400021682A78CB69B1F92200DB7E12FB0302CF
:104B5000B1F9241001EB0803394409F0FBFF30469A
:104B600002F0EFFE48460AF047FE20686A78C36903
:104B7000B0F922109B7E12FB0311418407B0BDE8FF
:104B8000F0830000D003002030B50F4C05460B46E3
:104B900020682946C069C06900F09EF9002812D03B
:104BA0004168008824682A1A0120E46900EBC200E9
:104BB000085CA47E10FB04F0002B04D011F8321026
:104BC00011FB04F1196030BDD003002001200880E2
:104BD000704700B5C06900F07FF9002800D00120BF
:104BE00000BD00002DE9F04FA34A054689B01068CA
:104BF000B0F92A70C069C1690C0004BF09B0BDE8F2
:104C0000F08F2388AB429CBF63889D4205D9A4687E
:104C1000002CF6D109B0BDE8F08F002C04BF09B01C
:104C2000BDE8F08F90E80C1F6668CDE906C18DE8FD
:104C30000C0F006A0890242290496846FBF78CFB11
:104C4000002808BF0C2419D024228D496846FBF7A0
:104C500083FB002808BF102410D02422894968460D
:104C6000FBF77AFB002808BF182407D024228649C6
:104C70006846FBF771FB002808BF202414F00700EA
:104C800018BF012000EBD40010FB04F000F0FF0976
:104C900049467E48FBF734FBDFF8F081802D4ED289
:104CA00005EB45000C2C06D0102C16D0182C2AD061
:104CB000202C32D03AE0764901EB8000A0F58060EC
:104CC000D0F88012C8F80010D0F88412C8F8041088
:104CD000D0F88802C8F8080028E06E4800EB0510FC
:104CE000A0F58060D0F80012C8F80010D0F80412C7
:104CF000C8F80410D0F80812C8F80810D0F80C0250
:104D0000C8F80C0012E06449302201EB0010A0F555
:104D1000C0615E48FBF7CDFA08E06048402200EB36
:104D20008510A0F500615948FBF7C3FA0D2D18BF97
:104D30000A2D53D149465548FBF7E2FA4EE0280ABE
:104D4000E9B2812928BF40281CD3FF2818BFFF29BA
:104D500018D07F2834BF40384138C0B28139C9B239
:104D6000C1EB411202EB811100EB41004C4900FB09
:104D700009F00C2C13D0102C19D0182C1FD0202C7B
:104D800025D02BE0002C1CBF681E002126D04170CE
:104D9000621E00F8021F12F0FF04F8D11EE0D1F8E5
:104DA00009104A460144394819F072FE16E0D1F85C
:104DB00011104A460144354819F06AFE0EE0D1F858
:104DC00019104A460144314819F062FE06E0D1F854
:104DD00021104A4601442D4819F05AFE96F80290D7
:104DE00038460AF009FD244C054601222068816BF3
:104DF000CDE90229CDE90481C169CB7E8A7ECDE966
:104E000000230B7EB0F924103278B0F9220009F0AB
:104E10003DFA2068C069417E027E91421CD9C07E65
:104E200011FB00F912FB00F8022F15D001F031FB45
:104E3000074601F0F7FA02F084FD21683278B1F9F3
:104E40002200B1F92410024401EB0903414409F0A6
:104E500081FE384602F075FD28460AF0CDFC206838
:104E60007278C369B0F922109B7E12FB0311418452
:104E700009B0BDE8F08F0000D00300204C160E08EA
:104E800098160E08E4160E0830170E082E79012029
:104E900064170E08D81B0E08C8210E0898330E0898
:104EA0002E7D01200B490968CA69D16981B10B883F
:104EB00083429CBF4B88984203D989680029F6D168
:104EC00006E029B14868917E007810FB01F0704738
:104ED00000207047D003002006E002888A4202D8F2
:104EE00042888A4202D280680028F6D170470000CA
:104EF00070B50025124C19E020691249C5EB051662
:104F000000EBC60070220968001DFBF7D2F920698A
:104F1000002140F8361000EBC60000F10C01816161
:104F2000011D0A1DC0E90F126D1C4164A068854275
:104F3000E2DB01F051FEBDE8704003F0D3B90000A0
:104F400064070020D003002070B50F490D480860A9
:104F5000084604F0BBF90C4C143CA068C0EB0010F0
:104F6000C500284600F0DAF92A460021206104F045
:104F700026FA4FF0FF30206003F024FABDE87040BD
:104F800023F01EBD81A002087807002010B522F092
:104F900053FC0448016A04480068416600F10801B6
:104FA000416110BD80030020D00300207CB5144671
:104FB0000D46064601F010FE1BF00AFE06441BF0EB
:104FC00015FE05441648006890F8691021B990F85C
:104FD00068104E434D434C43301B00F097F8ADF83A
:104FE0000000301900F092F8ADF80400281B00F022
:104FF0008DF8ADF80200281900F088F8ADF8060029
:1050000068461BF043FE06E0224629463046FFF77D
:105010006FFB1BF0BDFD0028F6D103F063F97CBDEA
:10502000D00300202DE9FE4F05460C9C0E46600083
:10503000511B98461746091A64D4A8EB0601081AB2
:1050400060D401F0C9FDDFF8C0A04FF00009DAF824
:10505000000090F8691019B910F8689F04210170D8
:105060001BF0B6FD05441BF0C1FD06441BF0B0FD6E
:1050700007441BF0BBFDDAF8002000EB080192F8B2
:10508000690030B992F868004543464347434143BD
:10509000444392F868007F1E074400EB010828464D
:1050A000761E00F033F8ADF80400384600F02EF814
:1050B000ADF80800304600F029F8ADF8060040468B
:1050C00000F024F8ADF80A0001A81BF0DFFD0EE0A7
:1050D0003946284600F07AF843463A463146284693
:1050E000009422F08BF9FFF751FF1BF051FD0028CF
:1050F000EED1DAF8000090F8691009B980F86890EC
:1051000003F0F0F8BDE8FE8FD003002004490968E1
:1051100091F8681009B190FBF1F000B270470000FF
:10512000D00300202DE9F041224C05460E462068B0
:10513000002788B920480068E06110B909F0CFFD68
:10514000E06100F0EBF8206080B31A491B4824317D
:105150000860084604F0BAF819480068854200DA89
:105160000546E169731B4A1E2046934201DD6E1815
:10517000761EAE4201DA2E460127124C2268516E8D
:105180004B68836301620B490F4B34310B605166EE
:1051900002C880E862001CF0F1FF1CF02FFD0548FA
:1051A00021682C3048613846BDE8F081FFE70127CF
:1051B000D2E700008003002000040020799F02084D
:1051C00004040020D00300203D640208044A126851
:1051D00092F8682090FBF2F091FBF2F1FFF7A2BF8A
:1051E000D00300200249096881F868001CF006BD60
:1051F000D0030020F8B50C0005460FD001F0ECFC00
:10520000204600F017F8060010D000F015F92246ED
:1052100000902DB12946FBF74CF804E00020F8BDC2
:10522000002104F0CCF8684600F070F903F05AF859
:105230003046F8BD10B5040009D001F0CDFC204681
:105240001CF0F4FB044603F04DF8204610BD00208E
:1052500010BD38B5054601F0BFFC2846FFF7EAFF50
:10526000040009D000F0E8F82A460021009004F07C
:10527000A6F8684600F04AF903F034F8204638BD35
:10528000024A106021F00300506070470480012042
:1052900010B5040016D001F09FFC0B48406B10F8CD
:1052A000341059B1022909D2042101EBC40141583B
:1052B00048681CF09FF9204626F094F9BDE810409C
:1052C00003F010B810BD0000447F0120002805D075
:1052D000034AD16B016001B14860D06370470000A0
:1052E000447F012010B5044601F076FC2068FFF7EA
:1052F000CFFF00202060BDE8104002F0F3BF0000A7
:1053000070B50D460646002405E000BF06EB84009C
:10531000FFF7E8FF641CAC42F8DB70BD2DE9F041FB
:10532000044624F045F92848E41C24F00305016CE8
:105330002D1DA94200D90D46C46B13E054F8042C6E
:10534000AA420ED184B1216809B162684A606168DD
:1053500009B122680A60C26BA24231D12168C163DF
:105360002EE02468002CE9D18046816BC0680F18BC
:1053700057F8040C3E1A306838B1002026F082FA43
:1053800057F8040C3E1A3068D0B97068A84217DB91
:105390003044441B3046241D26F02CFAD8F80C105B
:1053A000491BC8F80C10D8F814102944C8F8141078
:1053B0007068401B02D031461CF01CF944F8045CB4
:1053C0002046BDE8F0810000447F012010B5002494
:1053D00024F0EEF80C490F2001EBC002526C1AB118
:1053E00001EBC000406C08E0401EF5D508E04168C4
:1053F000A14200D90C46806810B180680028F6D11F
:10540000A4F10C0010BD0000447F0120002138B140
:105410000449042202EBC000496B085841680C396A
:1054200008467047447F012002488169491C816118
:1054300070470000447F01200549CA69521CCA61B7
:10544000496B01EBC0010A78521C0A7000F076B873
:10545000447F01207CB506460C460846FFF7EAFE6D
:10546000050020D0FEB13046FFF7D0FFA04200DAA1
:10547000044601F0B1FB2846FFF7DEFF00903046FE
:10548000FFF7DAFF0146019022460098FAF711FF74
:10549000684600F03BF801A800F038F83046FFF706
:1054A000F7FE02F01FFF28467CBD000010B501F09A
:1054B00093FBFFF78BFF64220849B0F5800F04D9F6
:1054C00090FBF2F4086A444303E0096A4143B1FBEC
:1054D000F2F402F007FF204610BD0000447F0120D7
:1054E0000549102805D94A68B0EB520F02D350087D
:1054F00000E0102088607047048001200248816924
:10550000491E816170470000447F01200A490268FA
:105510004B6B52F8082C03EBC2021378022B03D317
:10552000CB690BB15B1ECB611178491E1170002154
:105530000160084670470000447F0120002806D023
:105540000349042202EBC000496B08580830704739
:10555000447F01202DE9FC414FF000060B465FEA35
:10556000000834462BD032B111461846FFF742FEF0
:10557000060000D101244046FFF75EFF0090078837
:1055800045686846FFF7C2FFCCB9B9002846091D37
:10559000FFF760FF050015D0FFF74EFF019040F8C0
:1055A000276001A8FFF7B2FF4046FFF745FF0090D4
:1055B00045600188491C01806846FFF7A7FF204627
:1055C000BDE8FC813046FFF763FE0124F7E70820C1
:1055D000FFF73FBE7CB5050023D0FFF72DFF0090FD
:1055E0004068C0B1FFF728FF0024019005E0019852
:1055F00000EB8400FFF776FE641C00980088A04250
:10560000F5DC01A8FFF782FF0098001DFFF76AFE96
:105610000099002008806846FFF778FF2846FFF7CA
:1056200037FE7CBD38B5002430B1FFF705FF009090
:1056300004886846FFF76AFF204638BD38B50D4636
:10564000002448B1FFF7F8FE2946009000F016F854
:1056500004466846FFF75AFF204638BD38B50D4668
:10566000002448B1FFF7E8FE2946009000F018F842
:1056700004466846FFF74AFF204638BD38B50D4658
:1056800001880024A94209D9406838B1FFF7D4FE47
:10569000009050F825406846FFF738FF204638BD97
:1056A00010B50024FFF7EAFF10B1FFF7C5FE04466E
:1056B000204610BD70B50C46054601F0C3FAC1B2D4
:1056C00023462846BDE87040002200F001B80000E3
:1056D000F0B52D271C68B0F1004F08D00026002837
:1056E0000DDA651C1D6027704042012408E0651C2E
:1056F00001261D606FF000402770491E01E0002464
:10570000091BC9B22AB3491EC9B222E00C46491E80
:10571000C9B2944205D1124C27781C68651C1D60E3
:105720002770104C54F8215090FBF5F4E4B20A2C89
:1057300011D804FB150011B90EB1641CE4B20A2C97
:1057400002D10124491CC9B21D686F1C30341F608E
:105750002C700029DAD1196800200870F0BD000013
:10576000C403002074EA0E0810B5002807DD0A689B
:105770002B24531C0B601470096800220A7010BDA2
:1057800070B514460D46064601F026FA204600F094
:105790008DFE0300174804EB840109D050F8210066
:1057A00041688068711A2A1A184602F009F91CE04B
:1057B00000EB8104A268B24201D0012200E0002285
:1057C000E368AB4201D0012300E000231A430CD070
:1057D000236943B150F82100816840686A1A311A80
:1057E000184602F023F8C4E90265BDE8704002F0F3
:1057F00079BD00004881012010B5C2B2CBB2D21AE7
:1058000000D5524293B25B43C0F30722C1F3072491
:10581000121B00D55242000C92B2A0EB114002FBC9
:10582000023200B2002801DA404200B280B200FB2E
:10583000002010BD10B50021084600F0C1FE43F65F
:10584000FF725042BDE8104013460146AFF300809E
:105850002DE9FC411C4615460E46074601F0BCF9F1
:10586000042009F0C9FF80461248C068C16C006D71
:105870000F4406440D440444ADF80070ADF80450E4
:10588000ADF80260ADF8064068461BF0FFF907E08E
:1058900023462A463146384609F05CF91BF078F970
:1058A0000028F5D1404609F0A7FF02F01BFDBDE836
:1058B000FC810000C4030020B0F90630B0F90420D8
:1058C000B0F90210B0F90000FFF7C2BF2DE9F843AC
:1058D0001C00DDE9089816460F46054602D11AF06D
:1058E0004FF8044600962E6843464A46214628460D
:1058F000B047060039D01AF038F88146698A304638
:1059000019F009FB30461BF00CF848461BF009F86B
:105910004FF000080CE000BFCDF8008055F81CCF18
:1059200000231A4649462846E04700B31AF0F9FF1B
:105930007F1E002FF0DC1D2148461AF0F8FD601C88
:1059400012D001F049F91AF05FF830B1FFF7F6FD17
:105950008469B44201D02000F8D1B44202D030466C
:105960001AF0CAFE02F0BEFC3046BDE8F8833046AD
:1059700019F002FF0020F8E72DE9F0411C46164619
:105980000D460746022B02DB0020BDE8F0811C20FB
:10599000FFF7C4FC0028F8D00DB105610AE0094A00
:1059A00052F8241009B905E011460A68002AFBD113
:1059B0000969016184618682002101604160C0E95A
:1059C0000217E2E7E803002070B51D46FFF7D4FF99
:1059D000040009D000F00EF8E068006820B9034820
:1059E000006800EB85008465204670BDD003002070
:1059F000FFF76CBC70B590B38269022A30DA1E4C96
:105A000054F8221019B944F8220032E019464B68C4
:105A1000002BFBD106E0CB68C5681B682D68AB4244
:105A200003DD09680029F6D11AE0C1B1CB68C66868
:105A30001B683668B3420CD1838A012B05D008E07D
:105A40001946DB681B68AB4203DB0B68002BF7D100
:105A500029B14B6833B118604A68426004E0FFE73F
:105A6000012070BD44F822004860884200D1002126
:105A70000160002070BD0000E803002010B503E0C5
:105A80000468FFF7B7FF20460028F9D110BD26F0C3
:105A900005BE00002DE9F0410026DFF834800D4FEF
:105AA000354600BF58F8254009E0E0680068385CDA
:105AB00020B1204626F0F2FD266026462468002C00
:105AC000F3D16D1C022DEDDB3046BDE8F081000006
:105AD000E8030020944F0E08022801DB00207047E5
